:0800000076040400000000007A
:040044001C0100009B
:040068000001000093
:100200004200F8003600F800801F7800200020002F
:100210000C000900B01F78008600A900A001200092
:100220000C0009004F1078004F0078003600F900EC
:100230004200F900004006004200F8003600F800D5
:10024000801F7800200020000C000900B01F7800FB
:1002500084E0A900A00120000C0009004F107800E4
:100260004F0078003600F9004200F9000040060017
:100270000000E0004220AF00040037002D07090015
:10028000000000000000E900FCFF3A00000006004A
:1002900021E2A90020C2A900D40B2000141188007B
:1002A00021E2A800007D20003801020000000000CB
:1002B00020C2A9002002AE000200370024C2BF0005
:1002C000FCFF370000C8B30024E2B7002002AE00F4
:1002D000FEFF3700F82309000000000000000600C0
:1002E000811F780071418000805878008048EB00C1
:1002F000CF0078002E28EC0000000600851F780053
:10030000C500200003000900B51F780000F0A6001A
:100310000D0037000000EA000480A00004F0A600F1
:1003200009003700801F7800D0022000801F78006D
:100330004F00780070010200000000004F007800BC
:100340000480A1000860ED008002EB0080037800CB
:100350008404780004F0A1000404E00006003A00E0
:1003600009F0A70002003700050020001000370048
:10037000050020000E003700E64252000B00390055
:100380000003200009F0A60000022000801F780072
:100390004F00780070010200000000008502E900B3
:1003A000FAFF3B005500200001003700840278006E
:1003B000640020000580A7000402E80005E0A0001A
:1003C00009F0A70005F0A000087122001100090043
:1003D0008883D80032020200000000008103780008
:1003E000883E2000110009008883D80032020200F4
:1003F0000000000081037800480620001100090079
:100400008883D800320202000000000081037800D7
:10041000A8002000110009008883D80032020200E1
:10042000000000000980A60006003700D00220006E
:10043000801F78004F00780070010200000000006B
:100440000980A1000003200000C040005001880086
:10045000801F78004F00780070010200000000004B
:1004600024003700060320000000E0000E003A00E0
:1004700005E0A600170037000402E9000524E100AA
:10048000020032004200AF00000006000000E00061
:1004900005003A0005E0A6000E00370005F0A600B2
:1004A000060220000B00370005E0A1000980A6002D
:1004B0000800370000057800D0022000801F780077
:1004C0004F00780070010200000000000980A100C8
:1004D0000A00780000404300811F7800801F7800E8
:1004E0004F0078007001020000000000CF0078008B
:1004F000000006002501200003000900CF1278004B
:10050000CF02780000000600851F78003608F8004A
:100510003808F900C04180001004E00002003200F9
:100520003828EC00FBFF3700C4418000B341800055
:1005300003005200CF027800000006003442800021
:100540006224E10002003E004648E20002003A0058
:100550000060EF0026003700344280004822DE00B1
:100560006F24E100020036000060EF002000370039
:10057000344280006124E10004003A0000082000B9
:100580004748B40049E8B70003003700000C2000DA
:100590004748B40049E8B70020C2A9002002AE00D5
:1005A0000200370024C2BF00FCFF370049C8BF006B
:1005B00024E2B7002002AE00FEFF3700F823090056
:1005C0000000000020C2A9002002AE000200370097
:1005D00024C2BF00FCFF370048C8BF0024E2B700B8
:1005E0002002AE00FEFF3700F823090000000000E3
:1005F00000000600851F7800861F78003968EF002C
:100600003848E20002003A0039C8BF002300370032
:10061000C441800003022000041CE10002003100FC
:1006200000C2B30038E8B7003C68EF003CC8BF0028
:10063000C44180000024E1001700360037C8BF0025
:100640003C48B4000AE0B700E44180000960EF00D4
:10065000040078003A08B40010437800801F780046
:1006600036C8BF0046E8B7004F0078004608F800DB
:10067000F5FF9F004608F9004808F800E6FF9F00D4
:100680004808F9009E020200000000003968B4002A
:100690003C68EC00E5FF370039C8BF004F03780025
:1006A000CF02780000000600E4802000744188003A
:1006B00080418000040020007E0102000000000054
:1006C000E4802000B44188008402020000000000A1
:1006D00032E8B7003368EF0020C0B30036E8B70057
:1006E0003768EF0032C8BF0038E8B700E480200068
:1006F000D4418800FA020200000000000000060059
:10070000851F7800C500200003000900B51F780090
:1007100000F0A6000C0037000000EA000480A000F2
:1007200004F0A60008003700801F7800D0022000E7
:100730000F22AF00FEFF370010A2B7004F00780075
:100740000480A1000860ED008002EB0080037800C7
:100750008404780004F0A1000404E00006003A00DC
:1007600009F0A70002003700050020000F00370045
:10077000050020000D003700E64252000A00390053
:100780000003200009F0A600000220000F22AF00A5
:10079000FEFF370010A2B7008502E900FBFF3B0017
:1007A000550020000100370084027800640020001A
:1007B0000580A7000402E80005E0A00009F0A700FA
:1007C00005F0A00008712200110009008883D800FC
:1007D0002C0402000000000081037800883E200005
:1007E000110009008883D8002C04020000000000DA
:1007F0008103780048062000110009008883D80092
:100800002C0402000000000081037800A8002000F2
:10081000110009008883D8002C04020000000000A9
:100820000980A60005003700D00220000F22AF008B
:10083000FEFF370010A2B7000980A10000032000CE
:1008400000C04000500188000F22AF00FEFF3700BB
:1008500010A2B70020003700060320000000E000CF
:100860000E003A0005E0A600160037000402E90079
:100870000524E100020032004200AF000000060043
:100880000000E00005003A0005E0A6000D0037007A
:1008900005F0A600060220000A00370005E0A100CE
:1008A0000980A6000700370000057800D00220006C
:1008B0000F22AF00FEFF370010A2B7000980A10091
:1008C0000A007800004043000F22AF00FEFF37000F
:1008D00010A2B70000000600250120000300090057
:1008E000CF127800CF0278000000060040442400B8
:1008F000B004880081E0A80004402800641088004B
:100900000440200074108800B4002000A410880067
:10091000A8A2EF000FF82000F0FF200020A0B700F1
:10092000000000000FF82000F0FF200020A0B7001A
:10093000000000000028EF000FF82000F0FF20006A
:1009400020A0B700000000000028EF000FF82000F2
:10095000F0FF200020A0B7000000000048010200C6
:1009600000000000E1802000020020001F000900BC
:100970008058EB00C622EF00F40F2000F416880028
:10098000C622EF00CA22EF00DE22EF00E222EF00D3
:10099000A822EF00A222EF000408200024158800FE
:1009A000040E280004158800A822EF00A222EF0000
:1009B0002400200034158800100009000000000009
:1009C000DE02A8000628EF00E002AF000628EC00D7
:1009D000DE22A8000828EF00E022AF000828EC0083
:1009E000DE42A8000A28EF00E042AF000A28EC002F
:1009F0000608E20003003200C602A900CA02A800ED
:100A000002003700C602A900CA02A9000808E200D5
:100A100003003200C622A900CA22A8000200370043
:100A2000C622A900CA22A9000A08E2000300320077
:100A3000C662A900CA62AA0002003700C662A90005
:100A4000CA62A900A002A900A022A800A002AE00CC
:100A5000FEFF37008002F8000C08F90020C2A90050
:100A60002002AE000200370024C2BF00FCFF3700A6
:100A700024E2B7002002AE00FEFF3700F823090091
:100A8000000000000C08F8003008F90054030200D0
:100A9000000000006040800004002000800302008D
:100AA000000000000F22AF00FEFF3700A40020006E
:100AB00084108800C2FF3700FFFF37000040FE00AF
:0200000401F009
:100000000FC100FF3F0000FFB38700FF0F3100FF6B
:0C0010000F3300FF070000FF03C000FFDB
:00000001FF
;DSPIC30F4011
;CRC=7541  CREATED="24-Mar-15 16:55"
