:080000001C04040000000000D4
:0400280028010000AB
:040068000001000093
:100200004200F8003600F800801F7800200020002F
:100210000C000900B01F78001008E20003003A004B
:100220001400200084408800010037001028EF00EF
:100230008600A900A00120000C0009004F107800E2
:100240004F0078003600F9004200F9000040060037
:100250004200F8003600F800801F780020002000DF
:100260000C000900B01F78000E08E20003003A00FD
:100270001400200074408800010037000E28EF00B1
:100280008400A900A00120000C0009004F10780094
:100290004F0078003600F9004200F90000400600E7
:1002A0000000E0004220AF00040037002D070900E5
:1002B000000000000000E900FCFF3A00000006001A
:1002C00021E2A90020C2A900D40B2000141188004B
:1002D00021E2A800007D2000500102000000000083
:1002E00020C2A9002002AE000200370024C2BF00D5
:1002F000FCFF370000C8B30024E2B7002002AE00C4
:10030000FEFF3700F823090000000000000006008F
:10031000811F7800E1418000805878008048EB0020
:10032000CF0078003C28EC0000000600861F780013
:10033000871F7800881F7800891F78000002EB0073
:100340008002EB000003EB008003EB000304690074
:1003500011003200080220004200A9000080D200F3
:100360008180D2000482D2008582D2000328E1007D
:1003700001003A0002A0E10003003900020252002D
:1003800083825A004200A8000683D2008783D200ED
:100390000804E900F0FF3A008700780006007800C2
:1003A000CF0478004F047800CF0378004F03780023
:1003B00000000600851F7800C5002000030009002A
:1003C000B51F780001F0A600070037000000EA0022
:1003D0000100320002003A008100EA00010037000B
:1003E0008180EA000480A0008002EB000003780016
:1003F000810378000406780004F0A1000404E00002
:1004000001003A001E003700EB4252001C00390088
:10041000054252000CF0A6000E0037000480A60032
:100420000A003700D0022000811F7800801F78006A
:100430004F0078008801020000000000CF00780023
:100440000480A1008502E9000D00330000032000B4
:100450000100370000022000811F7800801F780013
:100460004F0078008801020000000000CF007800F3
:100470008502E900F8FF3B000480A7000442E90080
:10048000E8002000090020001000FA000C377C0072
:100490000884E900FDFF3B0084027800A4002000EE
:1004A0000580A7000402E80005E0A0000CF0A7000A
:1004B00005F0A0000504E000010032008542E900DB
:1004C000040F780015079800060078008700780070
:1004D00002A02C00A3B92300087122000DF0A10096
:1004E0004300A90096010200000000000DF0A200E8
:1004F0000DF0A7000700370040079800510798004B
:1005000000017800810178002E009000BE0090006C
:10051000F3FF37004207980053079800240798001C
:10052000350798001E0278009E0290000603200006
:100530000000E00011003A0005E0A60011003700BD
:100540000402E900040F78000400E0000D0032000E
:100550000524E100020032004200AF001A0037001B
:1005600005F0A600030037000580A6001100370043
:1005700007003700060220000E00370005E0A1004A
:10058000150798009E0290000580A600090037001C
:100590000580A1001507980000057800D002200012
:1005A000801F78004F0078008801020000000000E2
:1005B0000A00780000404300801F78004F00780058
:1005C00088010200000000004E009000DE00900054
:1005D000A20020008001EB006100E1000100320078
:1005E000BFFF37000080FA0025012000030009004A
:1005F000CF127800CF02780000000600851F780037
:100600004808F8004A08F900504280001004E00051
:10061000020032004A28EC00FBFF37005442800001
:100620004342800003005200CF0278000000060021
:10063000C44280006224E10002003E005848E2000B
:1006400002003A000060EF0026003700C44280003C
:100650004822DE006F24E100020036000060EF0057
:1006600020003700C44280006124E10004003A0009
:10067000000820005948B4005BE8B70003003700C9
:10068000000C20005948B4005BE8B70020C2A90064
:100690002002AE000200370024C2BF00FCFF37007A
:1006A0005BC8BF0024E2B7002002AE00FEFF3700A7
:1006B000F82309000000000020C2A9002002AE00BB
:1006C0000200370024C2BF00FCFF37005AC8BF0039
:1006D00024E2B7002002AE00FEFF3700F823090035
:1006E0000000000000000600851F7800861F7800CB
:1006F0004B68EF004A48E20002003A004BC8BF00D6
:10070000230037005442800003022000041CE10053
:100710000200310000C2B3004AE8B7004E68EF00A3
:100720004EC8BF00544280000024E100170036008C
:1007300049C8BF004E48B4000AE0B70074428000C8
:100740000960EF00040078004C08B4001043780002
:10075000801F780048C8BF0058E8B7004F007800F5
:100760005808F800F5FF9F005808F9005A08F800EB
:10077000E6FF9F005A08F90018030200000000007D
:100780004B68B4004E68EC00E5FF37004BC8BF0073
:100790004F037800CF02780000000600C4812000DB
:1007A000E4418800F0418000014280000400200004
:1007B000DA01020000000000C481200044428800E9
:1007C000FE0202000000000042E8B7004368EF00AC
:1007D00020C0B30048E8B7004968EF0042C8BF0036
:1007E0004AE8B700C4812000644288007403020014
:1007F0000000000000000600248120004442880020
:10080000FE020200000000003EE8B7003F68EF0073
:1008100020C0B30048E8B7004968EF003EC8BF00F9
:100820004AE8B70024812000644288007403020073
:10083000000000000000060081E0A800044028003D
:10084000641088000440200074108800B400200068
:10085000A4108800A8A2EF000FF82000F0FF2000ED
:1008600020A0B700000000000FF82000F0FF2000DB
:1008700020A0B700000000000028EF0004022200C2
:100880009440880004022200A44088000402220050
:10089000B440880004022200C44088000402200002
:1008A000D44088000FF82000F0FF200020A0B700FF
:1008B000000000000028EF000FF82000F0FF2000EB
:1008C00020A0B70000000000C622EF0081E0A900D0
:1008D0004220EF0081E0A8008E00A8008C00A80054
:1008E0006001020000000000C18120000200200021
:1008F0001F0009008058EB00A822EF00A222EF00A1
:100900000408200024158800040E2800041588001F
:10091000A822EF00A222EF00240020003415880056
:1009200010000900000000001021EF00F43F20003B
:100930006408880004002A008408880064002000FD
:10094000840C8800A002A900A022A800A002AE008A
:10095000FEFF370000148000010020000AA8B70045
:10096000614088000A08F8003E08F9000C08F80009
:100970004008F900CE0302000000000060092000DA
:100980005001020000000000FC0302000000000013
:100990000E08E200030032000A08F8008C01F9009A
:1009A000010037008C21EF001008E2000300320044
:1009B000C602A900CA02A80002003700C602A900A8
:0C09C000CA02A900DFFF37000040FE0063
:0200000401F009
:100000000FC100FF3F0000FFB38700FF0F3100FF6B
:0C0010000F3300FF070000FF03C000FFDB
:00000001FF
;DSPIC30F4011
;CRC=168C  CREATED="28-Mar-15 20:36"
